:020000040000FA
:0400000007EF00F016
:10000800208269ED04F086EF04F0C30E926E000EB4
:10001800936E010E946E000E956E000E966EF19E14
:10002800C4EC03F0D1EC04F0DBEC04F00F0EC16E6D
:10003800070EB46E000E936E010EB1EC04F0800E44
:10004800B1EC04F0A20E096EFF0E0A6E1DEC04F06E
:10005800C00EB1EC04F0F70E096EFF0E0A6E1DEC2F
:1000680004F0090E046EC40E036E45EC04F0010E94
:10007800B1EC04F0800EB1EC04F0AB0E096EFF0E8B
:100088000A6E1DEC04F0C00EB1EC04F0940E096E7B
:10009800FF0E0A6E1DEC04F00F0EC16E8368000E91
:1000A8001A6E3F0E806E020E046EEE0E036E45EC65
:1000B80004F0000E806E000E046EFA0E036E45EC1E
:1000C80004F01A2A020E1A646CEF00F06EEF00F0CA
:1000D80055EF00F0000E806E000E836E0B0EC16EA1
:1000E8009E9C9D8CF28CF28E010EB1EC04F0800E79
:1000F800B1EC04F0BD0E096EFF0E0A6E1DEC04F0A3
:10010800C00EB1EC04F0F30E096EFF0E0A6E1DEC82
:1001180004F0000E1A6ED9EF00F0C282C60EB1ECE0
:1001280004F01EC00FF01FC010F0130E116E000E69
:10013800126E8DEC02F014509CEC04F015509CECFF
:1001480004F016509CEC04F017509CEC04F01E5080
:100158001F10D8A4B2EF00F0B4EF00F0BEEF00F02B
:100168001A50D8A4BAEF00F0BCEF00F0BEEF00F0D0
:10017800010E1A6E1E2807E1030E1F18D8A4C7EF38
:1001880000F0C9EF00F0D3EF00F01A04D8A4CFEFC5
:1001980000F0D1EF00F0D3EF00F0020E1A6E000E5F
:1001A800046E0A0E036E45EC04F0010E1A64DFEFCC
:1001B80000F0E1EF00F091EF00F0010E046EF40E94
:1001C800036E45EC04F09D9CF29CF29E010EB1EC8E
:1001D80004F0800EB1EC04F0C60E096EFF0E0A6E34
:1001E8001DEC04F0C00EB1EC04F0E90E096EFF0E30
:1001F8000A6E1DEC04F0000E816E000E836E000E78
:100208001A6EFF0E811AFF0E831A050E046EDC0E9D
:10021800036E45EC04F01A2A050E1A6416EF01F075
:1002280018EF01F005EF01F0000E816E0F0EC16EA0
:100238003F0E936E010EB1EC04F0800EB1EC04F0A9
:10024800CF0E096EFF0E0A6E1DEC04F0C00EB1EC65
:1002580004F0E10E096EFF0E0A6E1DEC04F0050EA7
:10026800046EDC0E036E45EC04F0C00EB1EC04F035
:100278002B0E096EFF0E0A6E1DEC04F081B047EFDD
:1002880001F049EF01F042EF01F0C60EB1EC04F0C5
:10029800FB0E096EFF0E0A6E1DEC04F0010E046ED3
:1002A800F40E036E45EC04F0C00EB1EC04F03A0E07
:1002B800096EFF0E0A6E1DEC04F081B266EF01F0C4
:1002C80068EF01F061EF01F0C60EB1EC04F0FB0E2F
:1002D800096EFF0E0A6E1DEC04F0010E046EF40E9A
:1002E800036E45EC04F0C00EB1EC04F0490E096E43
:1002F800FF0E0A6E1DEC04F081B485EF01F087EF64
:1003080001F080EF01F0C60EB1EC04F0FB0E096EAF
:10031800FF0E0A6E1DEC04F0010E046EF40E036E5F
:1003280045EC04F0C00EB1EC04F0580E096EFF0E57
:100338000A6E1DEC04F081B6A4EF01F0A6EF01F0FF
:100348009FEF01F0C60EB1EC04F0FB0E096EFF0E34
:100358000A6E1DEC04F0010E046EF40E036E45ECFB
:1003680004F0C00EB1EC04F0670E096EFF0E0A6EC1
:100378001DEC04F081B8C3EF01F0C5EF01F0BEEF4A
:1003880001F0C60EB1EC04F0FB0E096EFF0E0A6E0A
:100398001DEC04F0010E046EF40E036E45EC04F03F
:1003A800C00EB1EC04F0850E096EFF0E0A6E1DEC4E
:1003B80004F081BAE2EF01F0E4EF01F0DDEF01F0C3
:1003C800C60EB1EC04F0FB0E096EFF0E0A6E1DECB2
:1003D80004F0010E046EF40E036E45EC04F0928AEC
:1003E800C00EB1EC04F0760E096EFF0E0A6E1DEC1D
:1003F80004F080BA02EF02F004EF02F0FDEF01F022
:10040800C60EB1EC04F0FB0E096EFF0E0A6E1DEC71
:1004180004F0010E046EF40E036E45EC04F0929A9B
:100428000B0EC16E948E949C010EB1EC04F0800EFC
:10043800B1EC04F0D80E096EFF0E0A6E1DEC04F044
:10044800C00EB1EC04F0EE0E096EFF0E0A6E1DEC44
:1004580004F0010E046EF40E036E45EC04F0C60EB3
:10046800B1EC04F0B40E096EFF0E0A6E1DEC04F038
:10047800010E046EF40E036E45EC04F0E50E046EF6
:10048800FE0E056EF5EC03F0A50E196E53EF02F0A3
:10049800070E096ED00E086E11EC03F0196EA50E4A
:1004A8001918D8B45AEF02F05CEF02F04CEF02F0E2
:1004B800C00EB1EC04F019509CEC04F01950C6ECD5
:1004C80004F0C10EB1EC04F01B0E096EFF0E0A6EAB
:1004D8001DEC04F0130E046E880E036E45EC04F058
:1004E800010EB1EC04F0800EB1EC04F0F90E096EC7
:1004F800FE0E0A6E1DEC04F0C00EB1EC04F00A0EFC
:10050800096EFF0E0A6E1DEC04F089EF02F007EF8A
:1005180000F00FC008F010C009F0270E0B6E100E87
:100528000A6E58EC03F00850300F11C0D9FF12C002
:10053800DAFFDF6E20EE01F01150D9261250DA22D0
:10054800270E066E100E056E0FC003F010C004F0E3
:1005580092EC03F003C008F004C009F0030E0B6E20
:10056800E80E0A6E58EC03F00850300FDF6E20EEEC
:1005780002F01150D9261250DA22030E066EE80E48
:10058800056E0FC003F010C004F092EC03F003C036
:1005980008F004C009F0000E0B6E640E0A6E58ECE9
:1005A80003F00850300FDF6E20EE03F01150D9260B
:1005B8001250DA22000E066E640E056E0FC003F0AC
:1005C80010C004F092EC03F003C008F004C009F076
:1005D800000E0B6E0A0E0A6E58EC03F00850300F2E
:1005E800DF6E20EE04F01150D9261250DA220FC027
:1005F80003F010C004F0000E066E0A0E056E92ECB1
:1006080003F00350300FDF6E20EE05F01150D926AD
:100618001250DA22000EDF6E1200000E0B6E000E72
:100628000A6EABB41AEF03F01CEF03F023EF03F0EC
:10063800ABA221EF03F023EF03F031EF03F0AB9807
:10064800AB8831EF03F0000E046E140E036E45EC18
:1006580004F0140E0A26000E0B2208500A5C0950FA
:100668000B58D8A03AEF03F03CEF03F045EF03F046
:1006780008500910D8A443EF03F045EF03F04CEFFE
:1006880003F09EAA4AEF03F04CEF03F027EF03F0C4
:100698009EAA51EF03F053EF03F056EF03F0AE506C
:1006A80057EF03F0A50E1200000E0D6E000E0C6E33
:1006B8000A500B10D8B463EF03F065EF03F08DEF29
:1006C80003F0010E0E6E6DEF03F0D8900A360B366C
:1006D8000E2A0BAE72EF03F074EF03F069EF03F02C
:1006E800D8900C360D360A50085C0B500958D8A023
:1006F80080EF03F082EF03F087EF03F00A50085E03
:100708000B50095A0C80D8900B320A320E2E74EF17
:1007180003F00CC008F00DC009F0120005500610D7
:10072800D8B499EF03F09BEF03F0BFEF03F0010E8D
:10073800076EA3EF03F0D89005360636072A06AEF3
:10074800A8EF03F0AAEF03F09FEF03F00550035C56
:1007580006500458D8A0B3EF03F0B5EF03F0B9EF93
:1007680003F00550035E0650045AD890063205324D
:10077800072EAAEF03F003C003F004C004F0120030
:1007880084928494000E046E140E036E45EC04F0FB
:100798008482380EB1EC04F0000E046E050E036E70
:1007A80045EC04F0380EB1EC04F0000E046E010EB6
:1007B800036E45EC04F0380EB1EC04F0080EB1EC11
:1007C80004F00F0EB1EC04F0010EB1EC04F0380E99
:1007D800B1EC04F00C0EB1EC04F0800EB1EC04F0B6
:1007E8001200000E086E08EF04F008500424066E8C
:1007F800000E0520076E06C0F6FF07C0F7FF0800C9
:10080800F550C6EC04F0082A08500424066E000EC1
:100818000520076E06C0F6FF07C0F7FF0800F55071
:100828000009D8A41AEF04F01CEF04F0F9EF03F064
:100838001200000E0D6E30EF04F00D5009240B6EFF
:10084800000E0A200C6E0BC0F6FF0CC0F7FF080064
:10085800F5509CEC04F00D2A0D5009240B6E000E87
:100868000A200C6E0BC0F6FF0CC0F7FF0800F5500D
:100878000009D8A442EF04F044EF04F021EF04F09B
:100888001200000E066E000E056E5DEF04F0000EFD
:10089800076E00F000F000F000F000F0072AC70E25
:1008A800076459EF04F05BEF04F04DEF04F0054ADC
:1008B800062A0350055C04500658D8A066EF04F0D9
:1008C80068EF04F04BEF04F0120006009DAC6FEFE8
:1008D80004F071EF04F084EF04F09EAC76EF04F0BE
:1008E80078EF04F084EF04F09E9CC350C4CF01F06D
:1008F800026A01C002F0016A01101E6E02501F6EEA
:1009080020921100CC0EF66E090EF76E000EF86EEE
:100918000900F5CF1EF00900F5CF1FF01D6A1C6A0B
:100928001B6A20902092000EF86E000109EF00F07B
:10093800086E84820850E2EC04F08484000E046E91
:10094800030E036E45EC04F08492000E046E030E51
:10095800036E45EC04F084821200086E848208500D
:10096800E2EC04F08494000E046E030E036E45EC72
:1009780004F08492000E046E030E036E45EC04F03E
:1009880084821200036E03C0ADFFACA2CEEF04F068
:10099800D0EF04F0C9EF04F012003C0EAF6EAC9C2F
:1009A800AC8AAC98AC84AB8EAB9CAB881200010EC1
:1009B800C26E0B0EC16E810EC06E1200036E03C0B4
:0609C80083FF1200FF0393
:10FEE400000A53656E642061206368617261637403
:10FEF4006572210A002020202053696D54657374B3
:10FF0400202020202000202020436F6D706C657419
:10FF1400656421202020002072656365697665642C
:10FF24002120202020200020524230202020202088
:10FF34002020202020002052423120202020202078
:10FF44002020202000205242322020202020202067
:10FF54002020200020524233202020202020202056
:10FF64002020002052423420202020202020202045
:10FF74002000205241352020202020202020202035
:10FF84000020524235202020202020202020200044
:10FF940037205365672E2044697370732E005374A1
:10FFA4006570202D20300053746570202D203100A1
:10FFB4003936303020384E310053746570202D208E
:10FFC400320053746570202D203300537465702003
:10FFD4002D20340053746570202D20350042757433
:10FFE400746F6E73004C45445300554152540041A4
:0BFFF4004443004C4344004F6B0000EE
:020000040020DA
:08000000FFFFFFFFFFFFFFFF00
:020000040030CA
:0E000000FF06181EFF8180FF0FC00FE00F40AB
:00000001FF
